{
  "contractName": "DAO",
  "abi": [
    {
      "inputs": [
        {
          "internalType": "uint256",
          "name": "contributionTime",
          "type": "uint256"
        },
        {
          "internalType": "uint256",
          "name": "_voteTime",
          "type": "uint256"
        },
        {
          "internalType": "uint256",
          "name": "_quorum",
          "type": "uint256"
        }
      ],
      "payable": false,
      "stateMutability": "nonpayable",
      "type": "constructor"
    },
    {
      "payable": true,
      "stateMutability": "payable",
      "type": "fallback"
    },
    {
      "constant": true,
      "inputs": [],
      "name": "admin",
      "outputs": [
        {
          "internalType": "address",
          "name": "",
          "type": "address"
        }
      ],
      "payable": false,
      "stateMutability": "view",
      "type": "function"
    },
    {
      "constant": true,
      "inputs": [],
      "name": "availableFunds",
      "outputs": [
        {
          "internalType": "uint256",
          "name": "",
          "type": "uint256"
        }
      ],
      "payable": false,
      "stateMutability": "view",
      "type": "function"
    },
    {
      "constant": true,
      "inputs": [],
      "name": "contributionEnd",
      "outputs": [
        {
          "internalType": "uint256",
          "name": "",
          "type": "uint256"
        }
      ],
      "payable": false,
      "stateMutability": "view",
      "type": "function"
    },
    {
      "constant": true,
      "inputs": [
        {
          "internalType": "address",
          "name": "",
          "type": "address"
        }
      ],
      "name": "investors",
      "outputs": [
        {
          "internalType": "bool",
          "name": "",
          "type": "bool"
        }
      ],
      "payable": false,
      "stateMutability": "view",
      "type": "function"
    },
    {
      "constant": true,
      "inputs": [],
      "name": "nextProposalId",
      "outputs": [
        {
          "internalType": "uint256",
          "name": "",
          "type": "uint256"
        }
      ],
      "payable": false,
      "stateMutability": "view",
      "type": "function"
    },
    {
      "constant": true,
      "inputs": [
        {
          "internalType": "uint256",
          "name": "",
          "type": "uint256"
        }
      ],
      "name": "proposals",
      "outputs": [
        {
          "internalType": "uint256",
          "name": "id",
          "type": "uint256"
        },
        {
          "internalType": "string",
          "name": "name",
          "type": "string"
        },
        {
          "internalType": "uint256",
          "name": "amount",
          "type": "uint256"
        },
        {
          "internalType": "address payable",
          "name": "recipient",
          "type": "address"
        },
        {
          "internalType": "uint256",
          "name": "votes",
          "type": "uint256"
        },
        {
          "internalType": "uint256",
          "name": "end",
          "type": "uint256"
        },
        {
          "internalType": "bool",
          "name": "executed",
          "type": "bool"
        }
      ],
      "payable": false,
      "stateMutability": "view",
      "type": "function"
    },
    {
      "constant": true,
      "inputs": [],
      "name": "quorum",
      "outputs": [
        {
          "internalType": "uint256",
          "name": "",
          "type": "uint256"
        }
      ],
      "payable": false,
      "stateMutability": "view",
      "type": "function"
    },
    {
      "constant": true,
      "inputs": [
        {
          "internalType": "address",
          "name": "",
          "type": "address"
        }
      ],
      "name": "shares",
      "outputs": [
        {
          "internalType": "uint256",
          "name": "",
          "type": "uint256"
        }
      ],
      "payable": false,
      "stateMutability": "view",
      "type": "function"
    },
    {
      "constant": true,
      "inputs": [],
      "name": "totalShares",
      "outputs": [
        {
          "internalType": "uint256",
          "name": "",
          "type": "uint256"
        }
      ],
      "payable": false,
      "stateMutability": "view",
      "type": "function"
    },
    {
      "constant": true,
      "inputs": [],
      "name": "voteTime",
      "outputs": [
        {
          "internalType": "uint256",
          "name": "",
          "type": "uint256"
        }
      ],
      "payable": false,
      "stateMutability": "view",
      "type": "function"
    },
    {
      "constant": true,
      "inputs": [
        {
          "internalType": "address",
          "name": "",
          "type": "address"
        },
        {
          "internalType": "uint256",
          "name": "",
          "type": "uint256"
        }
      ],
      "name": "votes",
      "outputs": [
        {
          "internalType": "bool",
          "name": "",
          "type": "bool"
        }
      ],
      "payable": false,
      "stateMutability": "view",
      "type": "function"
    },
    {
      "constant": false,
      "inputs": [],
      "name": "contribute",
      "outputs": [],
      "payable": true,
      "stateMutability": "payable",
      "type": "function"
    },
    {
      "constant": false,
      "inputs": [
        {
          "internalType": "uint256",
          "name": "amount",
          "type": "uint256"
        }
      ],
      "name": "redeemShares",
      "outputs": [],
      "payable": false,
      "stateMutability": "nonpayable",
      "type": "function"
    },
    {
      "constant": false,
      "inputs": [
        {
          "internalType": "uint256",
          "name": "amount",
          "type": "uint256"
        },
        {
          "internalType": "address",
          "name": "to",
          "type": "address"
        }
      ],
      "name": "transferShares",
      "outputs": [],
      "payable": false,
      "stateMutability": "nonpayable",
      "type": "function"
    },
    {
      "constant": false,
      "inputs": [
        {
          "internalType": "string",
          "name": "name",
          "type": "string"
        },
        {
          "internalType": "uint256",
          "name": "amount",
          "type": "uint256"
        },
        {
          "internalType": "address payable",
          "name": "recipient",
          "type": "address"
        }
      ],
      "name": "createProposal",
      "outputs": [],
      "payable": false,
      "stateMutability": "nonpayable",
      "type": "function"
    },
    {
      "constant": false,
      "inputs": [
        {
          "internalType": "uint256",
          "name": "proposalId",
          "type": "uint256"
        }
      ],
      "name": "vote",
      "outputs": [],
      "payable": false,
      "stateMutability": "nonpayable",
      "type": "function"
    },
    {
      "constant": false,
      "inputs": [
        {
          "internalType": "uint256",
          "name": "proposalId",
          "type": "uint256"
        }
      ],
      "name": "executeProposal",
      "outputs": [],
      "payable": false,
      "stateMutability": "nonpayable",
      "type": "function"
    },
    {
      "constant": false,
      "inputs": [
        {
          "internalType": "uint256",
          "name": "amount",
          "type": "uint256"
        },
        {
          "internalType": "address payable",
          "name": "to",
          "type": "address"
        }
      ],
      "name": "withdrawEther",
      "outputs": [],
      "payable": false,
      "stateMutability": "nonpayable",
      "type": "function"
    }
  ],
  "bytecode": "0x60806040523480156200001157600080fd5b5060405162001eb638038062001eb6833981810160405262000037919081019062000102565b600081118015620000485750606481105b6200008a576040517f08c379a000000000000000000000000000000000000000000000000000000000815260040162000081906200019a565b60405180910390fd5b824201600481905550816008819055508060098190555033600a60006101000a81548173ffffffffffffffffffffffffffffffffffffffff021916908373ffffffffffffffffffffffffffffffffffffffff160217905550505050620001f1565b600081519050620000fc81620001d7565b92915050565b6000806000606084860312156200011857600080fd5b60006200012886828701620000eb565b93505060206200013b86828701620000eb565b92505060406200014e86828701620000eb565b9150509250925092565b600062000167602083620001bc565b91507f71756f72756d206d757374206265206265747765656e203020616e64203130306000830152602082019050919050565b60006020820190508181036000830152620001b58162000158565b9050919050565b600082825260208201905092915050565b6000819050919050565b620001e281620001cd565b8114620001ee57600080fd5b50565b611cb580620002016000396000f3fe6080604052600436106101095760003560e01c80636f7bc9be11610095578063ce56c45411610064578063ce56c4541461037c578063ce7c2ac2146103a5578063d151b516146103e2578063d7bb99ba1461040d578063f851a4401461041757610109565b80636f7bc9be146102ae5780639f2524ee146102eb578063adba980414610328578063bcf93dd61461035157610109565b80632ab09d14116100dc5780632ab09d14146101db5780633a98ef391461020657806345579b1f1461023157806346fcff4c1461025a5780636ac1e01f1461028557610109565b80630121b93f1461011b578063013cf08b146101445780630d61b519146101875780631703a018146101b0575b34600360008282540192505081905550005b34801561012757600080fd5b50610142600480360361013d919081019061139a565b610442565b005b34801561015057600080fd5b5061016b6004803603610166919081019061139a565b610693565b60405161017e9796959493929190611afd565b60405180910390f35b34801561019357600080fd5b506101ae60048036036101a9919081019061139a565b61079a565b005b3480156101bc57600080fd5b506101c561096c565b6040516101d29190611ae2565b60405180910390f35b3480156101e757600080fd5b506101f0610972565b6040516101fd9190611ae2565b60405180910390f35b34801561021257600080fd5b5061021b610978565b6040516102289190611ae2565b60405180910390f35b34801561023d57600080fd5b50610258600480360361025391908101906113c3565b61097e565b005b34801561026657600080fd5b5061026f610af5565b60405161027c9190611ae2565b60405180910390f35b34801561029157600080fd5b506102ac60048036036102a7919081019061132e565b610afb565b005b3480156102ba57600080fd5b506102d560048036036102d091908101906112c9565b610d55565b6040516102e29190611947565b60405180910390f35b3480156102f757600080fd5b50610312600480360361030d91908101906112f2565b610d75565b60405161031f9190611947565b60405180910390f35b34801561033457600080fd5b5061034f600480360361034a919081019061139a565b610da4565b005b34801561035d57600080fd5b50610366610f12565b6040516103739190611ae2565b60405180910390f35b34801561038857600080fd5b506103a3600480360361039e91908101906113ff565b610f18565b005b3480156103b157600080fd5b506103cc60048036036103c791908101906112c9565b610fb6565b6040516103d99190611ae2565b60405180910390f35b3480156103ee57600080fd5b506103f7610fce565b6040516104049190611ae2565b60405180910390f35b610415610fd4565b005b34801561042357600080fd5b5061042c6110d5565b604051610439919061192c565b60405180910390f35b600115156000803373ffffffffffffffffffffffffffffffffffffffff1673ffffffffffffffffffffffffffffffffffffffff16815260200190815260200160002060009054906101000a900460ff161515146104d4576040517f08c379a00000000000000000000000000000000000000000000000000000000081526004016104cb90611ac2565b60405180910390fd5b60001515600760003373ffffffffffffffffffffffffffffffffffffffff1673ffffffffffffffffffffffffffffffffffffffff168152602001908152602001600020600083815260200190815260200160002060009054906101000a900460ff16151514610578576040517f08c379a000000000000000000000000000000000000000000000000000000000815260040161056f906119e2565b60405180910390fd5b6000600560008381526020019081526020016000209050806005015442106105d5576040517f08c379a00000000000000000000000000000000000000000000000000000000081526004016105cc90611962565b60405180910390fd5b6001600760003373ffffffffffffffffffffffffffffffffffffffff1673ffffffffffffffffffffffffffffffffffffffff168152602001908152602001600020600084815260200190815260200160002060006101000a81548160ff021916908315150217905550600160003373ffffffffffffffffffffffffffffffffffffffff1673ffffffffffffffffffffffffffffffffffffffff1681526020019081526020016000205481600401600082825401925050819055505050565b6005602052806000526040600020600091509050806000015490806001018054600181600116156101000203166002900480601f0160208091040260200160405190810160405280929190818152602001828054600181600116156101000203166002900480156107455780601f1061071a57610100808354040283529160200191610745565b820191906000526020600020905b81548152906001019060200180831161072857829003601f168201915b5050505050908060020154908060030160009054906101000a900473ffffffffffffffffffffffffffffffffffffffff16908060040154908060050154908060060160009054906101000a900460ff16905087565b600a60009054906101000a900473ffffffffffffffffffffffffffffffffffffffff1673ffffffffffffffffffffffffffffffffffffffff163373ffffffffffffffffffffffffffffffffffffffff161461082a576040517f08c379a000000000000000000000000000000000000000000000000000000000815260040161082190611a02565b60405180910390fd5b600060056000838152602001908152602001600020905080600501544211610887576040517f08c379a000000000000000000000000000000000000000000000000000000000815260040161087e90611a62565b60405180910390fd5b600015158160060160009054906101000a900460ff161515146108df576040517f08c379a00000000000000000000000000000000000000000000000000000000081526004016108d690611a42565b60405180910390fd5b60095460646002548360040154816108f357fe5b04021015610936576040517f08c379a000000000000000000000000000000000000000000000000000000000815260040161092d90611a22565b60405180910390fd5b61096881600201548260030160009054906101000a900473ffffffffffffffffffffffffffffffffffffffff166110fb565b5050565b60095481565b60065481565b60025481565b81600160003373ffffffffffffffffffffffffffffffffffffffff1673ffffffffffffffffffffffffffffffffffffffff168152602001908152602001600020541015610a00576040517f08c379a00000000000000000000000000000000000000000000000000000000081526004016109f790611982565b60405180910390fd5b81600160003373ffffffffffffffffffffffffffffffffffffffff1673ffffffffffffffffffffffffffffffffffffffff1681526020019081526020016000206000828254039250508190555081600160008373ffffffffffffffffffffffffffffffffffffffff1673ffffffffffffffffffffffffffffffffffffffff1681526020019081526020016000206000828254019250508190555060016000808373ffffffffffffffffffffffffffffffffffffffff1673ffffffffffffffffffffffffffffffffffffffff16815260200190815260200160002060006101000a81548160ff0219169083151502179055505050565b60035481565b600115156000803373ffffffffffffffffffffffffffffffffffffffff1673ffffffffffffffffffffffffffffffffffffffff16815260200190815260200160002060009054906101000a900460ff16151514610b8d576040517f08c379a0000000000000000000000000000000000000000000000000000000008152600401610b8490611ac2565b60405180910390fd5b816003541015610bd2576040517f08c379a0000000000000000000000000000000000000000000000000000000008152600401610bc9906119a2565b60405180910390fd5b6040518060e00160405280600654815260200185858080601f016020809104026020016040519081016040528093929190818152602001838380828437600081840152601f19601f8201169050808301925050505050505081526020018381526020018273ffffffffffffffffffffffffffffffffffffffff168152602001600081526020016008544201815260200160001515815250600560006006548152602001908152602001600020600082015181600001556020820151816001019080519060200190610ca492919061119b565b506040820151816002015560608201518160030160006101000a81548173ffffffffffffffffffffffffffffffffffffffff021916908373ffffffffffffffffffffffffffffffffffffffff1602179055506080820151816004015560a0820151816005015560c08201518160060160006101000a81548160ff0219169083151502179055509050508160036000828254039250508190555060066000815480929190600101919050555050505050565b60006020528060005260406000206000915054906101000a900460ff1681565b60076020528160005260406000206020528060005260406000206000915091509054906101000a900460ff1681565b80600160003373ffffffffffffffffffffffffffffffffffffffff1673ffffffffffffffffffffffffffffffffffffffff168152602001908152602001600020541015610e26576040517f08c379a0000000000000000000000000000000000000000000000000000000008152600401610e1d90611982565b60405180910390fd5b806003541015610e6b576040517f08c379a0000000000000000000000000000000000000000000000000000000008152600401610e62906119c2565b60405180910390fd5b80600160003373ffffffffffffffffffffffffffffffffffffffff1673ffffffffffffffffffffffffffffffffffffffff16815260200190815260200160002060008282540392505081905550806003600082825403925050819055503373ffffffffffffffffffffffffffffffffffffffff166108fc829081150290604051600060405180830381858888f19350505050158015610f0e573d6000803e3d6000fd5b5050565b60085481565b600a60009054906101000a900473ffffffffffffffffffffffffffffffffffffffff1673ffffffffffffffffffffffffffffffffffffffff163373ffffffffffffffffffffffffffffffffffffffff1614610fa8576040517f08c379a0000000000000000000000000000000000000000000000000000000008152600401610f9f90611a02565b60405180910390fd5b610fb282826110fb565b5050565b60016020528060005260406000206000915090505481565b60045481565b6004544210611018576040517f08c379a000000000000000000000000000000000000000000000000000000000815260040161100f90611a82565b60405180910390fd5b60016000803373ffffffffffffffffffffffffffffffffffffffff1673ffffffffffffffffffffffffffffffffffffffff16815260200190815260200160002060006101000a81548160ff02191690831515021790555034600160003373ffffffffffffffffffffffffffffffffffffffff1673ffffffffffffffffffffffffffffffffffffffff168152602001908152602001600020819055503460026000828254019250508190555034600360008282540192505081905550565b600a60009054906101000a900473ffffffffffffffffffffffffffffffffffffffff1681565b816003541115611140576040517f08c379a000000000000000000000000000000000000000000000000000000000815260040161113790611aa2565b60405180910390fd5b816003600082825403925050819055508073ffffffffffffffffffffffffffffffffffffffff166108fc839081150290604051600060405180830381858888f19350505050158015611196573d6000803e3d6000fd5b505050565b828054600181600116156101000203166002900490600052602060002090601f016020900481019282601f106111dc57805160ff191683800117855561120a565b8280016001018555821561120a579182015b828111156112095782518255916020019190600101906111ee565b5b509050611217919061121b565b5090565b61123d91905b80821115611239576000816000905550600101611221565b5090565b90565b60008135905061124f81611c2d565b92915050565b60008135905061126481611c44565b92915050565b60008083601f84011261127c57600080fd5b8235905067ffffffffffffffff81111561129557600080fd5b6020830191508360018202830111156112ad57600080fd5b9250929050565b6000813590506112c381611c5b565b92915050565b6000602082840312156112db57600080fd5b60006112e984828501611240565b91505092915050565b6000806040838503121561130557600080fd5b600061131385828601611240565b9250506020611324858286016112b4565b9150509250929050565b6000806000806060858703121561134457600080fd5b600085013567ffffffffffffffff81111561135e57600080fd5b61136a8782880161126a565b9450945050602061137d878288016112b4565b925050604061138e87828801611255565b91505092959194509250565b6000602082840312156113ac57600080fd5b60006113ba848285016112b4565b91505092915050565b600080604083850312156113d657600080fd5b60006113e4858286016112b4565b92505060206113f585828601611240565b9150509250929050565b6000806040838503121561141257600080fd5b6000611420858286016112b4565b925050602061143185828601611255565b9150509250929050565b61144481611ba1565b82525050565b61145381611b8f565b82525050565b61146281611bb3565b82525050565b600061147382611b73565b61147d8185611b7e565b935061148d818560208601611be9565b61149681611c1c565b840191505092915050565b60006114ae602983611b7e565b91507f63616e206f6e6c7920766f746520756e74696c207468652070726f706f73616c60008301527f20656e64206461746500000000000000000000000000000000000000000000006020830152604082019050919050565b6000611514602c83611b7e565b91507f496e766573746f7220646f6573206e6f742068617665207468697320616d6f7560008301527f6e74206f662073686172657300000000000000000000000000000000000000006020830152604082019050919050565b600061157a600e83611b7e565b91507f616d6f756e7420746f6f206269670000000000000000000000000000000000006000830152602082019050919050565b60006115ba602f83611b7e565b91507f616d6f756e7420697320746f6f206c617267653b206e6f7420656e6f7567682060008301527f617661696c61626c652066756e647300000000000000000000000000000000006020830152604082019050919050565b6000611620602a83611b7e565b91507f696e766573746f722063616e206f6e6c7920766f7465206f6e636520666f722060008301527f612070726f706f73616c000000000000000000000000000000000000000000006020830152604082019050919050565b6000611686602483611b7e565b91507f6f6e6c792061646d696e2063616e20706572666f726d20746869732066756e6360008301527f74696f6e000000000000000000000000000000000000000000000000000000006020830152604082019050919050565b60006116ec603183611b7e565b91507f63616e6e6f7420657865637574652070726f706f73616c207769746820766f7460008301527f657320232062656c6f772071756f72756d0000000000000000000000000000006020830152604082019050919050565b6000611752602883611b7e565b91507f63616e6e6f7420657865637574652070726f706f73616c20616c72656164792060008301527f65786563757465640000000000000000000000000000000000000000000000006020830152604082019050919050565b60006117b8602783611b7e565b91507f63616e6e6f7420657865637574652070726f706f73616c206265666f7265206560008301527f6e642064617465000000000000000000000000000000000000000000000000006020830152604082019050919050565b600061181e602783611b7e565b91507f63616e6e6f7420636f6e7472696275746520616674657220636f6e747269627560008301527f74696f6e456e64000000000000000000000000000000000000000000000000006020830152604082019050919050565b6000611884601a83611b7e565b91507f6e6f7420656e6f75676820617661696c61626c652066756e64730000000000006000830152602082019050919050565b60006118c4602883611b7e565b91507f6f6e6c7920696e766573746f72732063616e20706572666f726d20746869732060008301527f66756e6374696f6e0000000000000000000000000000000000000000000000006020830152604082019050919050565b61192681611bdf565b82525050565b6000602082019050611941600083018461144a565b92915050565b600060208201905061195c6000830184611459565b92915050565b6000602082019050818103600083015261197b816114a1565b9050919050565b6000602082019050818103600083015261199b81611507565b9050919050565b600060208201905081810360008301526119bb8161156d565b9050919050565b600060208201905081810360008301526119db816115ad565b9050919050565b600060208201905081810360008301526119fb81611613565b9050919050565b60006020820190508181036000830152611a1b81611679565b9050919050565b60006020820190508181036000830152611a3b816116df565b9050919050565b60006020820190508181036000830152611a5b81611745565b9050919050565b60006020820190508181036000830152611a7b816117ab565b9050919050565b60006020820190508181036000830152611a9b81611811565b9050919050565b60006020820190508181036000830152611abb81611877565b9050919050565b60006020820190508181036000830152611adb816118b7565b9050919050565b6000602082019050611af7600083018461191d565b92915050565b600060e082019050611b12600083018a61191d565b8181036020830152611b248189611468565b9050611b33604083018861191d565b611b40606083018761143b565b611b4d608083018661191d565b611b5a60a083018561191d565b611b6760c0830184611459565b98975050505050505050565b600081519050919050565b600082825260208201905092915050565b6000611b9a82611bbf565b9050919050565b6000611bac82611bbf565b9050919050565b60008115159050919050565b600073ffffffffffffffffffffffffffffffffffffffff82169050919050565b6000819050919050565b60005b83811015611c07578082015181840152602081019050611bec565b83811115611c16576000848401525b50505050565b6000601f19601f8301169050919050565b611c3681611b8f565b8114611c4157600080fd5b50565b611c4d81611ba1565b8114611c5857600080fd5b50565b611c6481611bdf565b8114611c6f57600080fd5b5056fea365627a7a7231582059c6b57db170f2b5c26b5f60eb369d98fb33d514d57686fdc8a5e6488b22f2a56c6578706572696d656e74616cf564736f6c63430005100040",
  "source": "// SPDX-License-Identifier: GPL-3.0\r\npragma solidity ^0.5.2;\r\npragma experimental ABIEncoderV2;\r\n/**\r\n * DAO contract needs to:\r\n * 0. Attract a group of investors\r\n * 1. Collect the investors money (ether)\r\n * 2. Keep track of the investors contributions(the invested ether) with shares\r\n * 3. Allow the investors to transfer shares\r\n * 4. allow investment proposals to be created and voted on\r\n * 5. execute successful investment proposals (i.e send money)\r\n */\r\ncontract DAO {\r\n    struct Proposal{\r\n        uint id;\r\n        string name;\r\n        uint amount;\r\n        address payable recipient; // will get paid if his proposal is executed\r\n        uint votes;\r\n        uint end;\r\n        bool executed;\r\n    }\r\n    // create a list of potential investors - true if they invested\r\n    mapping (address => bool) public investors;\r\n    // keep track of how much each investor has invested - call the money 'shares'\r\n    mapping (address => uint) public shares;\r\n    // total shares to be used in voting on proposals to get weight of a specific investor\r\n    uint public totalShares;\r\n    // total amount of available funds;\r\n    uint public availableFunds;\r\n    // fund is closed-end; investors can only invest(contribute) once in the beginning; keep track of end date\r\n    uint public contributionEnd; // just using instructors variable names\r\n    // keep mapping of proposals\r\n    mapping (uint => Proposal) public proposals;\r\n    uint public nextProposalId;\r\n    mapping (address => mapping(uint => bool)) public votes;\r\n    uint public voteTime;\r\n    uint public quorum; // percent of votes for a proposal\r\n    address public admin;\r\n\r\n    modifier onlyInvestors {\r\n        require(investors[msg.sender] == true, \"only investors can perform this function\");\r\n        _;\r\n    }\r\n    modifier onlyAdmin {\r\n        require( msg.sender == admin, \"only admin can perform this function\");\r\n        _;\r\n    }\r\n    constructor(\r\n        uint contributionTime,\r\n        uint _voteTime,\r\n        uint _quorum)\r\n    public {\r\n        require(_quorum > 0 && _quorum < 100, 'quorum must be between 0 and 100');\r\n        contributionEnd = now + contributionTime;\r\n        voteTime = _voteTime;\r\n        quorum = _quorum;\r\n        admin = msg.sender;\r\n    }\r\n    // called when someone other than admin sends this contract ether\r\n    function () payable external {\r\n        availableFunds += msg.value;\r\n    }\r\n    // payable function\r\n    function contribute() external payable {\r\n        require(block.timestamp < contributionEnd, \"cannot contribute after contributionEnd\");\r\n        investors[msg.sender] = true; // shouldn't we check he's in the list first?\r\n        shares[msg.sender] = msg.value;\r\n        totalShares += msg.value;\r\n        availableFunds += msg.value;\r\n    }\r\n    function redeemShares(uint amount) external{\r\n        require(shares[msg.sender] >= amount, \"Investor does not have this amount of shares\");\r\n        require(availableFunds >= amount, \"amount is too large; not enough available funds\");\r\n        shares[msg.sender] -= amount;\r\n        availableFunds -= amount;\r\n        msg.sender.transfer(amount);\r\n    }\r\n    function transferShares(uint amount, address to) external{\r\n        require(shares[msg.sender] >= amount, \"Investor does not have this amount of shares\");\r\n        shares[msg.sender] -= amount;\r\n        shares[to] += amount;\r\n        investors[to] = true;\r\n    }\r\n    function createProposal(string calldata name, uint amount, address payable recipient) onlyInvestors() external{\r\n        require(availableFunds >= amount, \"amount too big\");\r\n        proposals[nextProposalId] = Proposal(\r\n            nextProposalId,\r\n            name,\r\n            amount,\r\n            recipient,\r\n            0, // not votest\r\n            block.timestamp + voteTime,\r\n            false\r\n        );\r\n        availableFunds -= amount;\r\n        nextProposalId++;\r\n    }\r\n    function vote(uint proposalId) onlyInvestors() external{\r\n        require(votes[msg.sender][proposalId] == false, \"investor can only vote once for a proposal\");\r\n        Proposal storage proposal = proposals[proposalId];\r\n        require(block.timestamp < proposal.end, \"can only vote until the proposal end date\");\r\n        votes[msg.sender][proposalId] = true;\r\n        proposal.votes += shares[msg.sender];//effectively gives voting power based on number of shares\r\n\r\n    }\r\n    // only the admin can actually execute a proposal, which transfers ether to the proposal recipient\r\n    function executeProposal(uint proposalId) onlyAdmin() external{\r\n        Proposal storage proposal = proposals[proposalId];\r\n        require(block.timestamp > proposal.end, \"cannot execute proposal before end date\");\r\n        require(proposal.executed == false, \"cannot execute proposal already executed\");\r\n        require((proposal.votes / totalShares) * 100 >= quorum, \"cannot execute proposal with votes # below quorum\" );\r\n        _transferEther(proposal.amount, proposal.recipient);\r\n    }\r\n    function withdrawEther(uint amount, address payable to) onlyAdmin() external {\r\n        _transferEther(amount, to);\r\n    }\r\n    function _transferEther(uint amount, address payable to) internal {\r\n        require(availableFunds <= amount, \"not enough available funds\");\r\n        availableFunds -= amount;\r\n        to.transfer(amount);\r\n    }\r\n}\r\n",
  "sourcePath": "C:/Users/cawel/WebstormProjects/dao/contracts/DAO.sol",
  "compiler": {
    "name": "solc",
    "version": "0.5.16+commit.9c3226ce.Emscripten.clang"
  },
  "schemaVersion": "3.3.3",
  "updatedAt": "2021-03-09T20:34:56.782Z",
  "networkType": "ethereum",
  "devdoc": {
    "methods": {}
  },
  "userdoc": {
    "methods": {},
    "notice": "DAO contract needs to: 0. Attract a group of investors 1. Collect the investors money (ether) 2. Keep track of the investors contributions(the invested ether) with shares 3. Allow the investors to transfer shares 4. allow investment proposals to be created and voted on 5. execute successful investment proposals (i.e send money)"
  }
}